:100000000C9434000C943E000C943E000C943E0082
:100010000C943E000C943E000C943E000C943E0068
:100020000C943E000C943E000C943E000C943E0058
:100030000C943E000C943E000C943E000C943E0048
:100040000C943E000C943E000C943E000C943E0038
:100050000C943E000C943E000C943E000C943E0028
:100060000C943E000C943E0011241FBECFEFD8E04C
:10007000DEBFCDBF0E9440000C946B000C940000CA
:100080008EE387B961E070E080E090E048B19B01C9
:10009000082E01C0220F0A94EAF7342F322B38B908
:1000A0004FEF59E6E8E141505040E040E1F700C031
:1000B000000038B12095232328B92FEF39E648E115
:1000C000215030404040E1F700C0000001968630EA
:0A00D0009105E1F6D9CFF894FFCFB7
:00000001FF
